S0100000655F726F736172792E73726563B0
S1130000D0C1DFC1DFC1DDC1DCC1F0C1DAC1D9C1FA
S1130010D8C1D7C1D6C1D5C1D4C1D3C1D2C10000C2
S113002000000000000000000000000000000000CC
S113003000000000000000000000000000C080007C
S11300400070E080000000000000000000000000DC
S1130050000000000000000000000000000000009C
S1130060000000C080000070E0800000000000304C
S11300702030203000C080000070E08000000000CC
S1130080000000000000000000000000000000006C
S113009080C0000000000000000000F0F8D8DCDCA4
S11300A0F8F8C0C0C0C0F8F0C0C0D8CCC6C6467C02
S11300B038100070F0E07F3F00007F3F0000C0C0B8
S11300C0103810003070E0C0C0E0B098B0E0C0C09C
S11300D0D8CCC6C6467C38100070F0E07F3F0000E4
S11300E07F3F0000183C2C7CE0E0FFFCF07F3F00E9
S11300F000007F3F0000F8FC6C6E6E3C3C303C38E6
S1130100303C303E3CB030381F1F0000000000007F
S1130110000000070F0000000000040E040E04009D
S113012000000000000000080C0C0C060301000095
S1130130000000000000030F0C1C1C1C0C0E03002C
S11301400000000101000000000000000000080C95
S11301500C06030100000000000000000000000085
S11301600000000000000000000000000000030781
S11301700000000000000000000000000103010076
S113018000000000000000D8DCDE0E0E0E0E0E0E85
S11301900602080CFEFEFE0000F7F7E30000000074
S11301A0000000000086F7F7F700001B3B7B70702F
S11301B0707070707070604F1F3F0000000000008E
S11301C00000000000000000080CFEFEFE0000001D
S11301D0000000000000000000000086F7F7F700B0
S11301E0000000000000000000000000000F1F3F9E
S11301F0000000181C1E0E0E0E0E0E0E0602080C39
S1130200FEFEFE0000F0F0E00838383838383838A0
S1130210300607070700001B3B7B7070707070701E
S1130220707060400000000000181C1E0E0E0E0EC0
S11302300E0E0602080CFEFEFE0000000000083848
S11302403838383838383086F7F7F70000183878F7
S11302507070707070707070604F1F3F000000C04D
S1130260C0C00000000000000000080CFEFEFE00FC
S11302700007070308383838383838383086F7F735
S1130280F700000000000000000000000000000F64
S11302901F3F000000D8DCDE0E0E0E0E0E0E06020E
S11302A00000000000000007070308383838383819
S11302B038383080F0F0F0000018387870707070C2
S11302C070707070604F1F3F000000D8DCDE0E0EAF
S11302D00E0E0E0E060200000000000000F7F7E309
S11302E008383838383838383080F0F0F000001BDF
S11302F03B7B7070707070707070604F1F3F0000B7
S113030000181C1E0E0E0E0E0E0E0602080CFEFE2B
S1130310FE00000000000000000000000000008655
S1130320F7F7F700000000000000000000000000E4
S1130330000F1F3F000000D8DCDE0E0E0E0E0E0E66
S11303400602080CFEFEFE0000F7F7E30838383812
S1130350383838383086F7F7F700001B3B7B70706D
S1130360707070707070604F1F3F000000D8DCDE4A
S11303700E0E0E0E0E0E0602080CFEFEFE00000708
S1130380070308383838383838383086F7F7F70034
S1130390001838787070707070707070604F1F3F04
S11303A0000011241FBECFE5D2E0DEBFCDBF21E0A7
S11303B0A0E6B0E001C01D92AD3CB207E1F76ED0FB
S11303C0C7C31ECE1F920F920FB60F9211248F93A4
S11303D0B39B06C085B3877F85BB81E080936400AF
S11303E08F910F900FBE0F901F9018951F920F9230
S11303F00FB60F9211248F939F93AF93BF93809165
S1130400600090916100A0916200B0916300019638
S1130410A11DB11D8093600090936100A0936200C0
S1130420B0936300BF91AF919F918F910F900FBED6
S11304300F901F90189580E28BBF85B3886085BBB1
S1130440789408951ABC85E083BF82E089BF08953B
S11304508EEA35D117BA18BA85B7877E806185BF11
S1130460F89480B58F6080BD85B7806285BF85B7FD
S1130470846885BF8B7F85BF85B3886085BB1092F8
S113048064007894889585B78F7D85BF80B5807F1B
S113049080BD92D254D28FEA12D108958DD2CBDF8F
S11304A0D1DF2FEF89E698E1215080409040E1F7B9
S11304B000C0000044D28FE19EE40197F1F700C030
S11304C000007FD020D19FEF23ED80E391502040A6
S11304D08040E1F700C0000060E070E0CB018AD109
S11304E0C12CD12C760180916400813009F04CC07C
S11304F010926000109261001092620010926300EA
S11305009FE3C91692E4D9069FE0E906F10431F0AD
S11305102FEFC21AD20AE20AF20A03C0C12CD12C6C
S11305207601C701B60166D18FE097E20197F1F732
S113053000C0000014C08091600090916100A091FF
S11305406200B091630084369105A105B10539F4C8
S113055060E070E0CB014ED1C12CD12C7601B3996F
S1130560EACF8FE097E20197F1F700C00000109204
S1130570600010926100109262001092630085B3D3
S1130580886085BB10926400809160009091610046
S1130590A0916200B09163008E359140A105B10530
S11305A009F0A1CF55DF9FCF80E090E005C0FC01AA
S11305B0EB59FF4F10820196883621E09207B8F379
S11305C0089580E090E009C0FC01E25EFF4FE491F1
S11305D0DC01AB59BF4FEC930196883621E09207BA
S11305E098F30895EF92FF920F931F93CF93DF93A5
S11305F08A3008F05DC0663008F05AC070E0EB0144
S1130600CC0FDD1FCC0FDD1FCC0FDD1FC60FD71F96
S1130610CC0FDD1F7E0196E0E90EF11C90E08C0109
S1130620000F111F800F911F8C01000F111F000F6D
S1130630111F000F111F080F191F000F111FA0E039
S1130640B0E033C0BD0162957295707F7627607FFC
S113065076276A1B7B0B660F771F660F771F660F63
S1130660771FAD01440F551F440F551F440F551FED
S11306704A0F5B1F440F551F6E0D7F1D400F511F06
S113068080E090E00EC09C01260F371FFC01E40FB0
S1130690F51FEA57FE4FE491E901CB59DF4FE88398
S11306A001968231910578F31196A330B10550F289
S11306B0DF91CF911F910F91FF90EF900895CF9309
S11306C0C82FD3D188E702D2813031F480E0FED143
S11306D08C2FFCD1C82F01C0C0E0DFD18C2FCF916B
S11306E00895CF93C62FEBDF8C2FE9DF80E0CF9105
S11306F00895BBD188E7EAD1813019F480E4E6D1CA
S1130700089580E008951F93CF93DF9310E06BC0AA
S113071082E0810F806BD3DF80E0D1DF80E1CFDF27
S1130720E8DF113069F180F0123009F445C013306C
S113073009F451C056C0FE01EB59FF4F80818295E8
S1130740807FC4D1219602C0C0E0D0E0C837D10573
S113075090F347C0FE01EB59FF4F208122952F7083
S1130760FE01E352FF4F9081892F90E0829592958C
S1130770907F9827807F9827822BA8D1219602C04A
S1130780C0E0D0E0C837D10528F32BC0FE01EB59F7
S1130790FF4F208122952F70FE01E352FF4F90817D
S11307A0892F90E082959295907F9827807F982753
S11307B0822B8CD1219602C0C8E7D0E0C03FD1057E
S11307C028F30FC0FE01EB59FF4F808182958F7093
S11307D07DD1219602C0C0EFD0E0C83681E0D807B1
S11307E088F35BD11F5F143008F492CFDF91CF916F
S11307F01F910895CF92DF92EF92FF920F931F9370
S1130800CF93DF936B017C0180E4C81682E4D806A1
S11308108FE0E806F1040CF089C0C6DE90EAC91640
S113082096E8D90691E0E906F104A4F0C701B601FF
S113083020EA36E841E050E04DD1062F172FD82F9B
S1130840C92F60E0822FCEDEC02ED12EED2EFC2EDD
S113085081E001C080E090E1C91697E2D906E10485
S1130860F10414F4813099F4C701B60120E137E2B0
S113087040E050E02FD1062F172FD82FC92F61E069
S1130880822FB0DEC02ED12EED2EFC2E81E098EE0C
S1130890C91693E0D906E104F10414F4813099F403
S11308A0C701B60128EE33E040E050E013D1062F33
S11308B0172FD82FC92F62E0822F94DEC02ED12E9D
S11308C0ED2EFC2E81E094E6C916D104E104F10476
S11308D014F4813099F4C701B60124E630E040E015
S11308E050E0F8D0062F172FD82FC92F63E0822F9E
S11308F079DEC02ED12EED2EFC2E81E09AE0C916B1
S1130900D104E104F10414F4813061F4C701B601A7
S11309102AE030E040E050E0DDD0062F64E0822F92
S113092061DEC02E65E08C2D5DDEEDDEDF91CF91C2
S11309301F910F91FF90EF90DF90CF90089534DED8
S113094088B3806188BB87B3806187BB8FE39CE9F0
S11309500197F1F700C0000088B38F7E88BB8FE158
S11309609EE40197F1F700C0000088B3806188BB62
S11309708FE19EE40197F1F700C000008EEA9FDE4C
S113098060EF85EDAEDE6EE288EAABDE60E083ED1B
S1130990A8DE81EA94DE80EC92DE6FEF81E8A1DECE
S11309A060E38BED9EDE62E18DE89BDE86EA87DE06
S11309B0AADE8FEA84DE08958FEF8FB98AE28DB9BB
S11309C087B3856087BB88B3856088BB089587B388
S11309D08E7F87BB8EB18E608EB98DB181608DB9EB
S11309E0B299FECF88E08A95F1F7B09902C081E010
S11309F001C080E095E09A95F1F700009DB1916007
S1130A009DB9769BFECF9DE09A95F1F700009EB1CB
S1130A1090649EB997B3916097BB08957F9B03C080
S1130A2088B3816088BB8DB181608DB9B299FECFE6
S1130A308DE08A95F1F700008DB181608DB97F9BBF
S1130A4003C088B3816088BB8DE08A95F1F700000C
S1130A50769BE9CF8DE08A95F1F7000088B38E7F0D
S1130A6088BB8EB180648EB90895F89487B385608D
S1130A7087BB88B38E7F88BB8DE08A95F1F7000031
S1130A8088B38B7F88BB8DE08A95F1F70000779B54
S1130A90FECF8EB180688EB908958FEF8FB988B379
S1130AA0846088BB8DE08A95F1F7000088B381608B
S1130AB088BB8DE08A95F1F70000759BFECF8EB15F
S1130AC080628EB9789408958FB90895FDDFA6DF0A
S1130AD07EDF0895052E97FB16F400940FD057FD82
S1130AE005D014D007FC02D046F408C050954095B8
S1130AF0309521953F4F4F4F5F4F089590958095C6
S1130B00709561957F4F8F4F9F4F0895A1E21A2EE4
S1130B10AA1BBB1BFD010DC0AA1FBB1FEE1FFF1F9D
S1130B20A217B307E407F50720F0A21BB30BE40BED
S1130B30F50B661F771F881F991F1A9469F7609534
S1130B407095809590959B01AC01BD01CF010895EE
S1070B50F894FFCF43
S9030000FC
